:1000000000800010B5230000E5230000E723000076
:10001000E9230000EB230000ED23000000000000B6
:100020000000000000000000000000003508000093
:10003000F123000000000000A3080000DB0800001E
:10004000F7230000F7230000F7230000F723000048
:10005000F7230000F7230000F7230000F723000038
:10006000F7230000F7230000F7230000F723000028
:10007000F7230000F7230000F7230000F723000018
:10008000F7230000F7230000F7230000F723000008
:10009000F7230000F7230000F7230000F7230000F8
:1000A000F7230000F7230000F7230000F7230000E8
:1000B000F7230000F7230000F7230000F7230000D8
:1000C000F7230000F7230000F723000010B5054CCC
:1000D000237833B9044B13B10448AFF300800123F4
:1000E000237010BD7002001000000000F8F1000045
:1000F00008B5064B1BB106480649AFF30080064819
:10010000036813B1054B03B1984708BD0000000018
:10011000F8F10000740200107002001000000000EE
:10012000154B002B08BF134B9D46A3F5803A0021C9
:100130008B460F461348144A121A06F0FCFD0F4B6B
:10014000002B00D098470E4B002B00D09847002082
:10015000002104000D000D48002802D00C4806F0D4
:10016000D4F906F039FD2000290001F015FD03F057
:10017000DDFA00BF00000800008000100000000051
:100180005115000070020010DC1B00100B65000010
:1001900061690000016042607047F7B502AB03E996
:1001A000030000980CF048FE044601980D460CF040
:1001B00043FE224606460F462B46204629460CF0B3
:1001C0008FFE324604460D463B46304639460CF01B
:1001D00087FE02460B46204629460CF0CFFC04F071
:1001E000D1FB0DF05FF903B0F0BD2DE9F34702AB91
:1001F00003E90600824600980CF01EFE019C0646AC
:100200000F4604F0D1FA8046204689460CF014FED1
:1002100004460D4604F0A6F902460B464046494600
:100220000CF05EFE0DF03EF93946CAF8000030468B
:1002300004F0BAFA06460F462046294604F068FA4A
:1002400002460B46304639460CF04AFE0DF02AF9BC
:10025000CAF80400504602B0BDE8F08782B013B57A
:10026000044602A800E906000593059900980DF0E0
:100270006FF90699206001980DF06AF960602046D8
:1002800002B0BDE8104002B0704782B02DE9F743DC
:10029000044602A800E906000B93DDF800800B9FDE
:1002A000404639460DF05CFA0C9E019D8146314670
:1002B00028460DF055FA014648460DF047F93146FB
:1002C000206040460DF04CFA3946064628460DF0AF
:1002D00047FA014630460DF03BF96060204603B016
:1002E000BDE8F04302B070472DE9F04F84468DB071
:1002F0008B469246002757454EDA0CEBC70800267E
:10030000564547DA3846CDF80CC00CF083FD24A3DF
:10031000D3E900230CF0E4FD044630460D460CF012
:1003200079FD02460B46204629460CF0D9FD0446CD
:1003300050460D460CF06EFD0B46024629462046FF
:100340000CF0F8FE0DF0AEF80DF118090246002190
:100350004846FFF71FFF99E8060008A8FFF745FF8A
:10036000099B0BEBC60200930AA8089B06CAFFF77D
:100370008CFF0B9B04AC0093204698E806000A9B78
:10038000FFF76CFF94E80300013688E80300DDF80E
:100390000CC0B5E70137AEE70DB0BDE8F08F00BF88
:1003A000182D4454FB2119C038B5182204460D46B7
:1003B000002106F0C0FC2046294603F0F5F920464E
:1003C00038BD10B54FF07C510446D0F8FC0102F066
:1003D00013F8D4F80032DA685B68136010BDD0F807
:1003E00008321A6959681160DA685B6813607047EF
:1003F00010B5082104460122D0F8F80103F04AF8AC
:10040000D4F8F8010249BDE8104003F04FB800BF2E
:1004100000093D002DE9F3410446142088461746A3
:100420001E4604F089F84FF0FF3200920A9B0999AA
:10043000054602F0F1FFC4F8F8512046FFF7D8FF57
:10044000082004F079F80B99054602F025F8C4F865
:10045000FC51182004F070F841460546FFF7A4FF50
:10046000C4F80052182004F067F839460546FFF733
:100470009BFFC4F80452182004F05EF8314605468C
:10048000FFF792FFC4F80852182004F055F80899B5
:100490000546FFF789FF2046C4F80C5202B0BDE8BC
:1004A000F081D0F80C3210B51A695B68044613600D
:1004B000D0F80432D0F8F8011A695B681360036859
:1004C0001B689847D4F80C32DA685B681360D4F87C
:1004D0000432DA685B68136010BD0C21FFF7E1BFDE
:1004E00038B5D0F8043204461A695B684FF4FC75DD
:1004F0001360D4F8F801002103681B689847013D98
:10050000F7D1D4F80432DA685B68136038BD10B5EF
:100510000446FFF756FF0A2003F0B2FA2046FFF721
:100520005EFF20462121FFF7BCFF2046C821FFF7D0
:10053000B8FF20460621FFF7B4FF20461321FFF73E
:10054000B0FF20462021FFF7ACFF2046FFF7C5FF94
:1005500020460C21FFF7A5FF2046BDE81040FFF71D
:10056000BFBF38B55329A8BF532121EAE171052A3D
:10057000B4BF1546052561F07F01C9B225EAE575CE
:100580000446FFF78EFF45F040012046C9B2BDE8A2
:100590003840FFF786BF00000C4B30B513400824ED
:1005A00092FBF4F40625002B05FB014503DA013B21
:1005B00063F007030133012202FA03F3062202FB70
:1005C0000141425C1343435530BD00BF070000802A
:1005D000002170B50A460446FFF7C3FFD4F8043281
:1005E00000261A695B6813600025D4F8F801A21987
:1005F0000368515D1B6806359847B5F5FC7FF4D15B
:100600000136062EF0D1D4F80432DA685B68136044
:1006100070BD0000F0B50344062404FB023300253E
:100620004A5DA2B1242707FB053700244E5D062250
:10063000203E624306EB8606DFF81CC026441CF809
:1006400006600134052CBE54F0D10135E8E7BDE861
:10065000F040FFF7BDBF00BFB4DB00005422002311
:10066000013A037043708370C3700371437100F1EA
:100670000600F4D1704710B50446FFF7EFFF20469F
:10068000BDE81040FFF7A4BF2DE9F0410446082063
:100690001F460D46904603F04FFF41463A46064638
:1006A00002F030FDE9B24B0043F00103DBB22170F0
:1006B000A370637066602046BDE8F08110B5044603
:1006C000406803F032FF204610BD000030B585B011
:1006D000002304AA02F8053D0D46817800930446E4
:1006E0000123406802F036FDD0B96178009060685F
:1006F00003AA022302F048FD044698B99DF80C3085
:100700009DF80D001B0143EA10100CF083FB002242
:10071000064B0CF0E5FB0CF0C5FE2860204602E01D
:10072000642000E0652005B030BD00BF0000B03F90
:100730007FB504460E464068264902F0F3FC04AD3E
:10074000012305F8053D00220092A17860682A4641
:1007500002F000FD002835D100906178606803AA9E
:10076000022302F011FD78BB9DF80D30032E0ED848
:10077000DFE806F002050D0A03F03F030BE003F08B
:100780007F0343F0400306E063F03F0303E023F000
:10079000400363F07F038DF80D3000230093A178B0
:1007A00060682A46012302F0D5FC78B90090A17850
:1007B000606803AA022302F0CDFC00280CBF0020D1
:1007C0006F2004E0642002E0652000E06E2004B0A9
:1007D00070BD00BF801A060080F309887047EFF3F0
:1007E00009807047684680F3098841480078C0074F
:1007F00014BF0220032080F314887047DFF8F4C090
:10080000EFF305831B0618BF6047EFF31483DB0784
:1008100008BF604700DF7047DFF8DCC0EFF30583F7
:100820001B0618BF6047EFF31483DB0708BF604760
:1008300000DF7047EFF30980816911F8021CF9B9F4
:1008400090E80F10E047EFF3098C8CE807002B4B82
:1008500093E80600914200F0108039B12CE9F00FC6
:10086000C1F824C00CB400F0F1FD0CBC1A60D2F841
:1008700024C0BCE8F00F8CF309886FF0020E7047BB
:1008800010B51F4A1268914200F20A801D4C54F8BC
:10089000214090E80F10A047EFF3098C8CE80F007F
:1008A00010BD00F065FD154B93E80600914200F085
:1008B0001180EFF3098C2CE9F00FC1F824C00CB4BF
:1008C00000F0C4FD0CBC1A60D2F824C0BCE8F00FE4
:1008D0008CF309886FF0020E704700F099FDFFF766
:1008E000E2BF00F093FD00F093FDFFF7DCBF0000D6
:1008F00096DD00007F14000099140000BC02001077
:1009000000000000FCFFFFFF426810B57AB100F064
:1009100057F8044600F0FEF801216170204600F00F
:1009200053F921460448BDE8104000F031B8428830
:100930000132428010BD00BFA402001010B5038B2D
:1009400042781943062A04460183438B04D101EA05
:1009500003029A4219D105E0052A16D111EA0302D1
:1009600013D0428321EA03012183204600F0D2F80C
:100970000123204663700821628B00F028F921468C
:100980000248BDE8104000F003B810BDA4020010FA
:1009900030B502788C78013A4368D2B22BB19D7899
:1009A000A54202D318465B68F8E7022A4B60416013
:1009B00003D803B19960886030BD00238B6030BDDF
:1009C000436802785968013A022A41604FF00002F8
:1009D00004D809B188605A609A6000E05A601846ED
:1009E00070470000034B5A684260002282605860E2
:1009F000704700BFA4020010114B10B5DA680AB1AD
:100A00009A8A0CE000248A1AC460D86003619A8232
:100A1000848210BD002CF5D0A38A1A4423468A4252
:100A2000DC68F7D3C460D860C468036104B1206196
:100A3000521A92B28282998A8A1A9A8210BD00BF93
:100A40008C02001038B5184DEB68002B2AD0AB8A09
:100A5000013BAB82AA8A2ABB134BDC6814B3A368A0
:100A60003BB161685960616809B18B6062600023C5
:100A7000A3600E482146FFF78BFFA38AAB82637801
:100A8000042B04D10A4B1A68E38A1344A38201237E
:100A90006370E3680022EB6013B103491961E260FF
:100AA0002261D7E738BD00BF8C020010A4020010FD
:100AB0000803001083682BB142685A6042685AB13B
:100AC00093607047054B5A68824202D142685A606F
:100AD00070470AB11346F6E7704700BFA402001042
:100AE00038B58468054624B94378012B0ED1084CEB
:100AF00003E023780BB9A468FBE72846FFF7DAFF89
:100B000020462946BDE83840FFF742BF38BD00BF48
:100B1000A4020010036910B573B1C268DA60C2683C
:100B20003AB1998A848A2144998213610023C3606F
:100B300000E09A820023036110BD000030B50E4A28
:100B4000D578EFF3108372B69378AB4207D20133B6
:100B5000937013785C1CAC4208BF0024147062B61A
:100B6000AB4204D202EBC3035860996030BD02204F
:100B7000BDE8304000F0D7BC140B0010438CF0B53A
:100B8000846A9B0804EB83035A0748BF043B4FF079
:100B9000807203E90600A3F14005A3F14402A3F12A
:100BA0000C06002742F8047FB242FAD1C26943F82A
:100BB000202CC3784562012B18BF024BC16218BFBD
:100BC0002360F0BDA52E5AE2436A19627047436A5A
:100BD00019625A627047000008B50448FFF7F0FE3A
:100BE000034B58600223437008BD00BFA4020010ED
:100BF000BC020010074B01201B88984207D8064A08
:100C000002EB800252F8042C12B10130F5E700200B
:100C1000704700BF94DD0000980B001030B5002431
:100C2000012504704570817044608460C460046173
:100C30008482C4820483448380F820401146BDE846
:100C40003040FFF79BBF0000024B58600223437007
:100C5000704700BFBC02001070B5044618B9BDE86B
:100C60007040FFF7B9BF0B4DA27828680126837842
:100C70009A4207D9FFF7B6FE2B685E7002236C60BC
:100C8000637070BD667021460348BDE87040FFF791
:100C90007FBE00BFBC020010A402001038B50D4694
:100CA000014678B14FF6FF729042074C02D020689F
:100CB000FFF7A2FE236805485D70FFF781FE02235F
:100CC0006060437038BD00BFBC020010A402001079
:100CD000024B186800B1C078704700BFBC0200101A
:100CE00010B588B9174B1B689970174843689B78F3
:100CF0008B4222D9134C2168FFF74AFE2368012258
:100D00005A70FFF769FF18E0104B1B88984216D8FD
:100D10000F4B013853F820408CB10A4BA1701B686F
:100D20009C42E2D02046FFF7DBFE6378012B04D122
:100D30000548FFF745FEFFF78FFF002010BDFF209D
:100D400010BD00BFBC020010A402001094DD000022
:100D5000980B001070B5184D18B12B68DB789842CD
:100D600013D12E6800247470FFF739FD706200F013
:100D70006DFB2B68114AD9782C60013942F821406B
:100D80009C62FFF729FF204670BD0D4B1B889842DF
:100D90000FD80A4C461E54F8265055B12846FFF786
:100DA00089FE2846FFF7B6FE002044F82600A86218
:100DB00070BDFF2070BD00BFBC020010980B00107A
:100DC00094DD000010B5284B1A880023934205D209
:100DD0002649002041F823000133F7E7244CFF2384
:100DE000E370244B20461B8800216384224B234A56
:100DF000A362FFF713FF224A0023042111705360FE
:100E0000204A1170D360136193821F4A146002223A
:100E100062701E4A137053701D4B1B78D37000F024
:100E20004FFB1C4B1A6842F47F021A601B681B02BE
:100E300003F07F43DB43B3FA83F3174ADBB2126854
:100E4000C3F10803C2F302229A42A8BF531C6FF0F9
:100E5000807000FA03F3114A03F07F43116821F018
:100E60007F410B43136010BD94DD0000980B001010
:100E7000C40200109CDD0000F40B001025150000DA
:100E8000A40200108C020010BC020010140B001011
:100E90009EDD000020ED00E00CED00E01CED00E028
:100EA00008B500F09DFA0C4B0028186012DB00F129
:100EB0006040FF2200F5644002701A68012153115E
:100EC00002F01F0201FA02F29B0003F1604303F5F6
:100ED00061431A6008BD00BF0003001038B18307EA
:100EE00004D10378002B18BF002070470020704702
:100EF00000B5DFF80CC000DFDFF808C000DFFEE758
:100F0000A1100000B910000030B50C4C002223687D
:100F1000254633B11C89A14203D31A46091B1B681D
:100F2000F7E789B20360018113B11C89611A198145
:100F30000AB1106030BD286030BD00BFF80200105B
:100F4000431C11D00B4B984211D80B4B4FF47A71C4
:100F50001B685A1E01FB0020B0FBF3F04FF6FE7336
:100F6000984228BF184670474FF6FF7070474FF6FB
:100F7000FE70704700093D0098DD000038B5084C50
:100F8000257855B9FFF71EFF064BFF221B68284640
:100F90009A7000F0CAFA01232370002038BD00BF08
:100FA000F4020010BC02001010B5EFF305845CB928
:100FB000EFF31484E40703D4BDE81040FFF7DEBF6D
:100FC000DFF808C000DF10BD822010BD7D0F0000DB
:100FD00010B588B0EFF3058434BBEFF3148404F04C
:100FE0000304022C0CD0032C16D0012C1ED008AC0C
:100FF00084F309880F4C2478E40705D5022404E023
:101000000C4C2478E4070BD4032484F31488BFF336
:101010004F8FBFF36F8F03E0064C2478E40705D4AD
:10102000DFF814C000DF02E0822000E0FF2008B0FB
:1010300010BD00BF96DD000009120000F8B504469F
:1010400050B1026842B18388D81C80B2062803D808
:10105000A06808B1E66826B9802000F066FA002092
:10106000F8BD04F11005E162191DC9B2A6636086DE
:101070002846FFF7D3FDFFF7BDFD074E471E46F894
:101080002750E0742846FFF7E7FD56F82700034A8B
:10109000436A5A63F8BD00BF980B0010F10E0000C0
:1010A00008B5FFF715FE18B1024B013853F82000C0
:1010B00008BD00BF980B001008B5FFF70FFF38B14F
:1010C000C078FFF747FEFF2814BF0020812008BD2D
:1010D000802008BD70B505460C46EFF3058686B93D
:1010E000EFF31486F60706D4074E36781EB9BDE82E
:1010F0007040FFF7A3BF28462146DFF810C000DF8D
:1011000070BD002070BD00BFFC0200103D1000004B
:1011100010B5EFF305841CB9DFF808C000DF10BD7F
:10112000822010BDB910000008B530B1FFF708FFEC
:1011300080B200F0A1F9402008BD08BD10B5EFF362
:1011400005841CB9DFF808C000DF10BD822010BD87
:1011500029110000830706D128B10169C3680A6814
:10116000194610467047002000217047F8B5134B10
:101170001C681F460CB32389013B23812389E3B9F3
:101180000F4B26681D683E6055B12B78012B07D1A7
:10119000284600F059FA18B12846214600F058FABE
:1011A0006379012B04D120466189FFF7ADFE01E090
:1011B000012323710EB13446E0E7F8BDF8020010B8
:1011C000F80D001010B504460846DFF80CC000DF2B
:1011D00084E80300204610BD5511000010B50446F8
:1011E00018B1016809B1406820B9802000F09DF96C
:1011F000002010BD0378002BF7D10431890089B29B
:1012000000F0C2F9606810BD38B5104D2C78D4B923
:1012100021460F48FFF7E2FF0E4B214618600E48AB
:10122000FFF70CFF0D4B214618602046FFF758FDD5
:101230000B4B1A68526A203282F309881C60FFF750
:101240002FFE01232B70002038BD00BFFC020010D0
:101250000C010010F80D001014010010F40D001026
:10126000BC0200102DE9F04F0C4685B08046E8B175
:101270000378012B1FD10846FFF762FE02A982B254
:10128000404600F08FF9012806D10020002C0246CC
:10129000034618BF402003E000200246034610200A
:1012A000029904460D4616461F4608E0802405466E
:1012B0000646074603E0002580242E462F4620469A
:1012C000294632463B4605B0BDE8F08F7FB504465F
:1012D00016460846EFF30581A9B101AD00B10AB188
:1012E00080230AE00378012BFAD102A900F0B7F9B4
:1012F000042801D0019601E01023019395E807002E
:1013000084E8070005E01146DFF80CC000DF84E840
:101310000700204604B070BD651200007FB50A4B7F
:1013200003A819684FF0FF32FFF7D0FF039B102B83
:10133000F5D101A80499FFF745FF019B002BEED0E2
:1013400002989847EBE700BFF80D0010054B1B789B
:1013500023B9054B4FF080521A607047034B0122AE
:101360001A7070470503001004ED00E0040300103C
:1013700038B5184B184D186801234370FFF732FB3E
:101380006C78AA78144BEAB103EBC403586802786E
:101390001AB91989FFF7D2FA07E0012A03D199682F
:1013A00000F084F901E0FFF7AFFAEB7801349C42DA
:1013B00008BF0024EFF3108372B6AB78013BAB702B
:1013C00062B6DEE75C700548FFF7FAFABDE8384020
:1013D000FFF73ABCBC020010140B0010A40200106E
:1013E000084B4FF0FF301A68074B1A6000225A6012
:1013F000072243F8042CD3F80C2D42F07F42C3F8A7
:101400000C2D7047A0DD000014E000E070470000E4
:1014100008B50B4B186801234370FFF7E3FA00F09F
:101420005BF8084B1A6801321A60FFF70BFBFFF7F5
:101430009DFE0548FFF7C4FABDE80840FFF704BC6D
:10144000BC02001008030010A4020010084B1B6827
:10145000DA78012A0AD09A6A5B6A9A4203D812683B
:10146000044B9A4202D0012000F05DB8704700BFE3
:10147000BC020010A52E5AE20321FFF70FBCEFF3C8
:10148000108172B6036801F001010BB11A680260A5
:1014900001B962B61846704781420DD3436899423C
:1014A0000AD2EFF3108272B603680B60016012F08B
:1014B000010003D162B670470120704700207047D9
:1014C000034B00221A60034A1268DA80704700BF9B
:1014D0000C030010A4DD000008B50F4B59680F4B3A
:1014E0001A688A420E4A05D0D888196011680138F6
:1014F000014499809988138899420BD1074B0022A7
:1015000005481A60FFF75CFABDE80840014602484A
:10151000FFF73EBA08BD00BFA40200100C03001084
:1015200008030010FEE700F0A1BE08B100F09EBE67
:10153000704700000449054AC1F1805303F5F843A0
:101540009360D160704700BFE01B0010CC0000101A
:101550000020002104460D46094804F0D6FF05F09E
:101560003BFB20462946FFF71FFDFFF7E3FF054839
:101570000021FFF7AFFDFFF72BFD02F0D7F80000C9
:1015800061690000CC000010012310390370890844
:101590000023437083704360038143818381C18151
:1015A0007047000038B5838904461546002B35D0B6
:1015B0004289101D54F8200001320860E18992B27E
:1015C0009142628104BF002262816268F2B1627856
:1015D000022A1BD12046FFF7F3F900210546FFF749
:1015E000F3FA2389EA69191D44F821200133E289BD
:1015F0009BB29A42238108BF0023284608BF23815B
:10160000FFF788FA2846FFF727FB05E0EFF3108283
:1016100072B6013BA38162B6002038BD82B1426838
:10162000084B1AB11968FFF7B3F905E01B6843606E
:101630005A6098600123437028460821FFF72EFB6B
:10164000012038BDBC020010C2898089101A704781
:1016500008B5FFF773FABDE80840FFF777BE838946
:1016600010B50446EBB14389043350F823300B60C6
:101670004378022B04D10021FFF760FAFFF766FEE2
:10168000EFF3108372B6A389013BA38162B663892D
:10169000E28901339BB29A42638104D100236381C2
:1016A00001E0184610BD042010BD0000436870B56D
:1016B00004460E46002B4AD04578022D1CD0032D3F
:1016C0000AD0012D5DD1FFF77BF910210446324687
:1016D000FFF77DFA657034E00846FFF7D0FE054657
:1016E00000284ED02046FFF76BF929460446FFF745
:1016F0006BFA0123637024E0FFF762F900210546CD
:10170000FFF762FA2389EA69191D44F82120EFF3F3
:10171000108272B6A2890132A28162B6E2890133D7
:101720009BB29A42238104BF0023238101232846D0
:101730006B70FFF7EFF913482946BDE87040FFF7DB
:1017400027B92046FFF7E6F90E482146F5E78089DC
:10175000E189884210D22289151D44F82560EFF3F3
:10176000108572B60130A08162B6013292B28A420F
:1017700014BF2281238170BD0320BDE87040FFF7B4
:10178000D2BE70BDA402001043691A6843681A42B1
:101790000CBF002001207047014B0360704700BF61
:1017A000B0DD000010B5034B0446036002F0BDFE3F
:1017B000204610BDB0DD000010B5034B04460360A9
:1017C00001F07CFC204610BDB8E3000010B50446D3
:1017D000FFF7F2FF204602F0A8FE204610BD0000F1
:1017E000074B10B503F1180203604C3304468264C2
:1017F000C364483001F020FF024B2046236010BD37
:1018000030E40000B0DD0000A0F14C00FFF7E8BFBD
:10181000A0F14800FFF7E4BF10B50446FFF7E0FF72
:10182000204602F082FE204610BDA0F14C00F3E7F6
:10183000A0F14800F0E700002DE9F047002405463C
:10184000894690460026A24646450FDA59F826708A
:10185000514638460CF040F900B1BA4638462146A8
:101860000CF01CF900B13C460136EDE7214650462C
:101870000BF06CFE2146074600200BF067FE394650
:101880000CF022F821490BF06BFF0CF02FF9C0F19E
:101890002F000BF011FF0CF029F9064632462846BE
:1018A0000021FEF779FE324628460121FEF774FE3C
:1018B00000263246284602210136FEF76DFE302E04
:1018C000F7D1002646451BDA59F8260021460BF0D1
:1018D0003DFE39460BF0F8FF0C490BF041FF0CF0D0
:1018E00005F9C0F12F000BF0E7FE0CF0FFF806F150
:1018F000030A024651462846FEF74EFE0136E1E74E
:101900002846BDE8F047FEF763BE00BF00003C423A
:101910002DE9F34100252B4B684653F82510002292
:10192000FEF738FC9DE80300274B6C4603EBC5032C
:101930000135402D83E80300EDD100250021234F20
:1019400068460A46FEF726FC94E8030007EBC50349
:101950000135402D83E80300F0D138461A492A4664
:10196000FEF7C2FC00231A4D00225A510433B3F58E
:10197000807FF8D100241F2C05F108051FD0013409
:1019800007EBC40696E80300FEF707FC631C07EBB1
:10199000C30345F8080C93E80300FEF7FEFB8046FE
:1019A00096E80300FEF7F9FB014640460BF0D0FD38
:1019B0004FF07C510BF0D4FE45F8040CDBE702B08D
:1019C000BDE8F081E012001018160010E0100010C1
:1019D000C40E0010F8B50023244D00225A510433E0
:1019E000B3F5807FF8D100241F2C05F108053CD009
:1019F0001F4F013407EBC40696E80300FEF7CDFB4A
:101A00000BF01AFA02460B460BF06AFA02F048FF96
:101A10000022184B0BF064FA0BF044FD631C07EB3B
:101A2000C30745F8080C97E80300FEF7B6FB074626
:101A300096E80300FEF7B1FB014638460BF088FD3F
:101A40004FF07C510BF08CFE0BF0F6F902460B4682
:101A50000BF046FA02F024FF0022064B0BF040FA8E
:101A60000BF020FD45F8040CBEE7F8BDDC0F0010BC
:101A7000E01000100000344070B5114D05F580767F
:101A800000236B600F4801F01FFE0F4C20700D48C3
:101A900001F01AFE60700B4801F016FEA0700948B4
:101AA00001F012FEE070236845F8043FB542E7D12B
:101AB000FFF72EFFFFF78EFF044B01221A7070BD57
:101AC000DC120010A80E00105C0E0010FC0D0010BF
:101AD000F0B58DB0264B274D1C781F464CB10F2119
:101AE000254801F069FA2548254904F08FFF286050
:101AF00006E0286804F078FD1F48214601F05CFAF2
:101B000000240CA9002341F8283D1E48FEF7DEFD05
:101B1000029A1D4B0020E25001F0EEFE0CAB43F8A0
:101B2000240D184605F07EF81E210346174A04A826
:101B300006F082F83B785BB12E684EB102980BF04C
:101B40007BF904AACDE900013046114904F068FF91
:101B50000020043400F0A5F9B4F5807FD1D1FFF75F
:101B6000D7FEFFF737FF0B4B01221A70B2E700BF19
:101B7000DC10001018180010180E0010B8DD00005E
:101B8000C7DD000024180010E0120010C9DD0000BD
:101B9000CFDD0000FC0D0010F0B537489BB001F020
:101BA000BDFE364B002401213548364E1C70FEF731
:101BB000BFFD35483470FEF7AAFC4FF400638DE892
:101BC000180022462346314907A8314D00F026F976
:101BD00022463048304901F0CFFC2C602F4C0123C5
:101BE00023602F48FFF7D0FD60B12E48FFF7CCFDF2
:101BF00008B9022323602C48FFF7C6FD80B90323F0
:101C000023600DE0012727482760FFF7BDFD08B9D5
:101C1000264B1F702448FFF7B7FD08B9234B1870F7
:101C200033781BB92A6823689A42DAD01648FEF73F
:101C300022FD2368022B12D0032B13D01C4B1868F3
:101C40000BF0FAF802460B4603A81A4905F0F4FE19
:101C500000220D4803A91346FEF7DCFC07E00A4802
:101C6000154901E0084815494022FFF7E5FD00232A
:101C7000337023682B60B4E723FAAE5420180010A9
:101C800024180010FC0D0010E0130010D11A000001
:101C90001C180010600E0010791A0000C00E001011
:101CA000C40F001000160010000E0010DC10001011
:101CB000E0120010D9DD0000C40E0010DC0F00108F
:101CC00070B5394B8EB0394D00934FF0FF33384C1F
:101CD0000193029303930493059306930793089348
:101CE00009930A930B930C932846324B3249334A9B
:101CF00001F0EEF82846324D2246324902F010FC3F
:101D00002846314901F0F2F9304B314E2B60224622
:101D100028463049182502F003FC2A4630460021A7
:101D200005F009F830462C4E2C49002201F028FD20
:101D30002A463046002104F0FEFF3046284E29494D
:101D4000002201F01DFD2A463046274D002104F0F7
:101D5000F2FF3046254901F001FD002328462449C1
:101D6000244A01F0C3FB2846234D2246234902F0B2
:101D7000D7FB234B28464821224AFEF785FC224602
:101D80002846214902F0CCFB204B21490093113316
:101D90000193033B0293363303931E4A453B1E488F
:101DA000FEF738FB0EB070BD32C00920180E0010CF
:101DB000C800001034C0092037C0092035C00920F0
:101DC000F0150010992E0000E6DD0000B8E30000D9
:101DD00000160010B9170000000E001018C00920EE
:101DE000C40F001019C00920600E00101AC009208D
:101DF00002C0092003C0092024180010E1170000C8
:101E00000BC009200AC00920BD06000001C009203E
:101E100007C0092006C00920E013001070B5059D19
:101E20000446164604980D4AA1602260A3812061F1
:101E300015B16561002307E002F092FB606110B903
:101E4000074801F061FC012384F8483004F10800E0
:101E50003146FFF73FF96060204670BD18DE000094
:101E6000ECDD00004068FFF753B90000074B10B5E8
:101E700004460360FFF7F6FF94F848301BB1606931
:101E800008B102F056FB204610BD00BF18DE00006E
:101E900010B50446FFF7EAFF204602F046FB204655
:101EA00010BDFFF74BB90000036870B51B69002136
:101EB000012204469847431C05460ED0236820465D
:101EC0001B690021022298472368064629461B69A0
:101ED000204600229847304670BD70BD084A094B25
:101EE00010B4026003F58071002453F8042B824281
:101EF00008BF43F8044C8B42F7D15DF8044B7047A0
:101F000040DE00002C1800100A4A0B4B10B503F5F8
:101F1000807104460260002053F8042B944208BFED
:101F200043F8040C8B42F7D1204602F0FEFA20461B
:101F300010BD00BF40DE00002C180010024803490D
:101F4000034A00F0CBBE00BFD01B001002C0092026
:101F500003C00920F0B50E4685B03549054605F0A9
:101F6000FEFD20B9334B1B6863B105B0F0BD2846B8
:101F7000314905F0F4FD78B92E4B1B6843B10120BF
:101F800005B0F0BD0190FFF7D9FF019805B0F0BD95
:101F9000FFF7D4FF0120E8E72846284905F0DFFDD8
:101FA00010B3274B002402E00134402C21D053F819
:101FB000040F0028F8D12B783A2B32D0294602A8FA
:101FC00001F000F802A801F04FF890B102A801F06A
:101FD00033F888B102A801F039F803464BB1194A29
:101FE000E01C42F82430C0E7124B1B68ABB1022062
:101FF000BBE74FF0FF30B8E702A801F011F8054643
:102000000028F6D0036802A89F6801F007F832465E
:1020100001462846B8470346E0E7FFF78FFF022056
:10202000A3E72846084902AA05F02AFD029BD5E746
:1020300020DE00003019001030DE000028DE000035
:10204000281800102C18001068DE0000022808B5BF
:102050000BDD084BC21E53F82200002143F822106A
:1020600028B103685B68984708BD002008BD4FF0A1
:10207000FF3008BD2C180010022870B50C4616461B
:102080000FDC0E4B1B680BB9FFF758FFA51936B1D3
:1020900014F8011B0A4800F071FDAC42F8D130463B
:1020A00070BD084B033853F8200018B103681B6853
:1020B000984770BD4FF0FF3070BD00BF3019001061
:1020C000D01B00102C180010022810B50C4609DC9B
:1020D0000D4B1B688BB10D4800F0FAFC01232070FA
:1020E000184610BD0A4B033853F8200040B103686E
:1020F0009B6898470346184610BDFFF71FFFEAE7A5
:102100004FF0FF33ECE700BF30190010D01B001078
:102110002C180010022808B508DD074B033853F8C7
:10212000200028B10368DB68984708BD012008BD7E
:102130004FF0FF3008BD00BF2C180010022808B572
:1021400008DD074B033853F8200028B103681B69EA
:10215000984708BD002008BD4FF0FF3008BD00BF04
:102160002C180010022808B504D84FF400534B6017
:10217000002008BD04F0E0F9092303604FF0FF30B0
:1021800008BD00BF08B5012001F0D0FA074A136866
:102190001844EFF30881884202D210601846704755
:1021A000034B0C221A604FF0FF30704754010010AF
:1021B000D81B00102B4A202370B4C2F8A031D2F8EB
:1021C000A031980645D4274B022100250124AA20DE
:1021D00055220B26C3F80411C3F8A8511946C3F8B9
:1021E000AC51C3F80C41C3F88460C3F88C00C3F849
:1021F0008C20C3F88040C3F88C00C3F88C20D1F841
:102200008830184A5B01FAD50321AA205523C2F869
:102210008010C2F88C001146C2F88C30D1F888309A
:10222000104A13F0407FF9D00F4900230520C2F86F
:102230000801C2F8C410C2F8C831136870BC23F496
:10224000704323F03A0343F4405343F03A031360DE
:102250007047D2F8A0315906B5D4D2F8A03159064A
:10226000F7D5B0E700C00F40DE87280400B599B06D
:1022700072B63B49684601F097FA06A8394901F061
:1022800093FA0CA8384901F08FFA12A8374901F0E7
:102290008BFA32E00699039B019A01311A6059D0FA
:1022A0000C990A9B079A01311A604DD01299109B24
:1022B0000D9A01311A6041D0159B139A96201A602D
:1022C00001F0DEFB009B013332D00699049B019A9A
:1022D00001311A6026D00C99099B079A01311A60C6
:1022E0001AD012990F9B0D9A01311A600ED0169BCD
:1022F000139A96201A6001F0C3FB009B0133C9D1E9
:102300001B481C49242201F0E9F9C3E71848194980
:10231000242201F0E3F9EAE715481649242201F0E6
:10232000DDF9DEE712481349242201F0D7F9D2E79C
:102330000F481049242201F0D1F9C6E70C480D4995
:10234000242201F0CBF9B7E709480A49242201F019
:10235000C5F9ABE706480749242201F0BFF99FE71A
:1023600032C0092034C0092035C0092037C00920F7
:1023700078DE000090DE00000C4A30B49368946868
:102380001A46B4F1805F0CD2094A03F1C40553F830
:10239000044BAB4242F8044FF9D1044B4FF080524A
:1023A0009A60103042F8201030BC704700ED00E019
:1023B000FCFFFF0F0649074A074B9A42BEBF51F880
:1023C000040B42F8040BF8E7044880470448004730
:1023D00004F20000C800001070020010B5210000D7
:1023E00021010000FEE7FEE7FEE7FEE7FEE7FEE76D
:1023F000FEE7FEE7FEE7FEE770B50C460546002166
:1024000020460BF04BFB00BB20464FF07E510BF0FB
:1024100063FB08B14FF07E540D4EB0690BF048F9E4
:1024200021460BF09DF90BF087FBB269034682420F
:102430002A7908BF431C012090402968044A0B6098
:10244000116D40EA0103136570BD0024E4E700BF8D
:10245000008001400E4A10B414680E4B04FB01F1D9
:1024600002225A6099619A693AB1026810689B69C0
:1024700000FB01F1B1FBF3F11160064B0922196D6C
:102480005DF8044B41F0010119655A60704700BFC7
:102490002C19001000800140F8B50E4605462B4966
:1024A000304601F00FFAC4B2FF2C48D004F1080303
:1024B00001209840264B274AD3F8C41052F8242014
:1024C00041F040012C712A60C3F8C410D3F8A87100
:1024D000214C27F4405700210222C3F8A871E16083
:1024E0006261E16C1D4B40EA0102E26419681C4A1A
:1024F0001C4BA2FB01022846120D44F620611A6013
:10250000FFF7A8FFA0690BF0D3F800210BF028F922
:102510000BF012FBA269012490422A79296804FA7F
:1025200002F408BF01300C4A0860116D304644EADD
:10253000010313650549BDE8F84001F083B90A4875
:102540000A493C2201F0CAF8B0E700BFF8DE0000FB
:1025500000C00F405C0100100080014058010010D5
:1025600083DE1B432C190010ACDF0000C0DF00002D
:1025700008B5154A9368C3F34203012B1ED0022B02
:1025800019D1124B596F01310AD0D3F88010986FCE
:10259000086093F8A61019B9516821F00101516043
:1025A000186F0A4B48B193F8A6302BB10021084AA6
:1025B0001368984708BD08BD08BD08BD034A106FE1
:1025C0000028F9D01946F2E70080094038190010B8
:1025D0003419001070B50368294CA34249D041DD7D
:1025E000284CA3422AD004F58044A34244D1264C6F
:1025F00008263ABB01290BD04568244AC5EBC5051E
:1026000002EBC50494F8355094F83620EA4214D110
:10261000012202FA01F5D1F1010138BF002102FACD
:1026200001F15C6824EA05045C6003685B68194298
:1026300003D1B240164BC3F8802070BD154C07265D
:10264000002AD7D0012505FA01F176B2304605FA05
:1026500006F65A680A435A602146FFF78DFE0C4B76
:102660001E6070BDA4F58044A34205D10A4C052626
:10267000BFE70A4C0626BCE700242646B9E700BFA0
:1026800000000140008009400527000038190010B3
:1026900000E100E071250000A12600007127000084
:1026A00008B5154A9368C3F34203012B1DD0022BD2
:1026B00018D1124B5968013109D01969986808601E
:1026C00093F8361019B9516821F00101516018686A
:1026D0000A4B48B193F836302BB10021084A1368F1
:1026E000984708BD08BD08BD08BD044A1068002809
:1026F000F9D01946F2E700BF00C0004038190010B9
:102700003419001008B5174A9368C3F34203012B2C
:1027100021D0022B1CD1144BD3F8AC1001310BD0BB
:10272000D3F8B810D3F8B000086093F8DE1019B9E8
:10273000516821F001015160D3F8A8000A4B48B15B
:1027400093F8DE302BB10021084A1368984708BD82
:1027500008BD08BD08BD044AD2F8A8000028F8D07A
:102760001946F1E700C0094038190010341900106B
:1027700008B5154A9368C3F34203012B1DD0022B01
:1027800018D1124BD96B013109D0996C186C0860C3
:1027900093F86E1019B9516821F001015160986BDE
:1027A0000A4B48B193F86E302BB10021084A1368E8
:1027B000984708BD08BD08BD08BD044A906B0028B5
:1027C000F9D01946F2E700BF0000014038190010A7
:1027D000341900102DE9F04F0368884A8DB09342F8
:1027E00009908B4600F3F080854A934200F0F78011
:1027F00040F3D780834A934200F09F8002F58042E5
:1028000093420CD1804AD2F8AC1121F44021C2F895
:10281000AC11D2F8AC1141F48021C2F8AC117B4963
:102820004FEA0B1209680891089CB1FBF2F102FB18
:10283000114289B20491002A00F0B1806100A20027
:102840000123029400240B910A9201930F460392F4
:102850000693CDF81CB05E460594DDF81CA00199E6
:102860004FF00008D146CDB2DA46C346002F79DBDF
:102870000399DDF804E0B1FBF9F464090134C4F311
:102880004F04DE44002C66D10124B8F1000F67D15B
:1028900004FB0EF0029AC000B2FBF0F00130CAEB6C
:1028A000500003F02EFEB04206DA504564D00646D2
:1028B000CDF81480049406950BF1010B5FFA8BF8A8
:1028C0004545D144D2D8019CD3460F2C4FF000038C
:1028D0005DD0029A0899019C0A440B990134029236
:1028E0000194039A0F440A9C079922445944039285
:1028F0000791002BB1D0069B059A099C42EA031070
:102900002368C0B2197B049C41F08001C4F3072204
:10291000099C1973236804991A7123685FFA81FB73
:1029200083F800B0236883F8280023681A7B02F03C
:102930007F021A730DB0BDE8F08F334AD2F8AC11A4
:1029400021F44031C2F8AC11D2F8AC1141F480311D
:10295000C2F8AC1163E7B8F1000F99D0012C97D8F9
:10296000022495E7B7FBF9F42409DDF804E001340B
:10297000C4F34F04DE4485E70494019CD3460F2C36
:102980000695CDF8148056464FF00103A1D1059964
:10299000069A099C41EA0210C0B22368B2E71020EF
:1029A000B0E7A2F5804293427FF439AF164AD2F8DD
:1029B000A81121F0C001C2F8A811D2F8A81141F065
:1029C0004001C2F8A8112AE79B221148114900F0E2
:1029D00085FE099C0A4A236893427FF409AF0A4A9C
:1029E000D2F8A81121F44071C2F8A811D2F8A811A8
:1029F00041F48071C2F8A81111E700BF00C009407E
:102A0000000001400080094000C00F405801001044
:102A1000C8E00000E4E00000F8B55D1E012D0746A7
:102A20000C46164604D915481549FB2200F056FEFF
:102A3000053C032C1CD8042E14D8013EF6B2032EFC
:102A40000DD8104B082253F826301B01DBB244EAA4
:102A50008504144323433A68DBB21373F8BD0023A3
:102A60001A46F4E708480649FE2200F037FEE4E77C
:102A700006480349FC2200F031FEDCE74CE100008F
:102A8000E4E000004CE0000098E1000074E1000088
:102A9000436810B40448054CC3EBC30344F8332027
:102AA00001605DF8044B70473419001038190010AC
:102AB00010B439B94368054CC3EBC30304EBC3033B
:102AC00083F836205DF8044BFFF784BD38190010F9
:102AD00000B50268137DDB07FCD543680949C3EBE9
:102AE000C30301EBC303596810780131C0B207D0AA
:102AF000596904335B680B60536843F0010353600A
:102B00005DF804FB3819001038B54368184AC3EB68
:102B1000C303DB00D1180446C869013011D0183353
:102B20001A445368151D013316D06A696B68126820
:102B30001A4204D12368187DC0F3801038BD0020EC
:102B400038BD23681B7D9B060CD491F834000F28F8
:102B50008CBF0020012038BD064807492C2200F018
:102B6000BDFDE2E7002381F83430012038BD00BF0D
:102B70003819001078DE00001CE2000038B5044669
:102B80000D462046FFF7C0FF0028FAD02368EDB2BB
:102B90001D706268054BC2EBC20203EBC20393F8DF
:102BA0003420013283F8342038BD00BF38190010BA
:102BB0002DE9F04F0446454D006883B0A8420E460B
:102BC0009046994643D06568002301932A46DFF872
:102BD00008A1EF00C2EBC202781B4FF0000E0AEB17
:102BE000C0000AEBC20C4FF0FF33C3614360714673
:102BF000724620468CF835E0FFF7ECFC16B903B0BE
:102C0000BDE8F08F3249404600F04EFE3149834620
:102C1000484600F049FEB21E012A38D9012EEED1F5
:102C2000B8F1FF3FEBD02949226807208B4510728D
:102C300015D1019B9BB11B7C019A254943F04003B0
:102C40004046137403B0BDE8F04F00F0FBBD037CB9
:102C5000656803F03F03037462680190B7E77D1B6A
:102C60000AEBC50041460430002200F0BFFD626857
:102C70000125C2EBC2020AEBC20320462A4600210C
:102C800083F8355003B0BDE8F04FFFF7A3BCB9F1AE
:102C9000FF3F09D00D4A90420CD0781B0AEBC000D0
:102CA00049461C3000F05AFD032EA8D1B8F1FF3F71
:102CB000B9D1A4E7019B002BEFD01A7C484642F023
:102CC00080021A74034900F0BDFDEDE700000140E9
:102CD00028E0000004E30000381900102DE9F04757
:102CE0000F46054608466149164600F0EBFD60496F
:102CF0000446304600F0E6FD0146204600F0C2FDE5
:102D0000411C044600F0AB805A4B2860984200F00A
:102D1000838053D9584B984276D003F5804398422C
:102D200006D1564BD3F8C42042F00072C3F8C42039
:102D30004FF0010984F808902B684FF00008C3F8A1
:102D4000048028464FF41651FFF744FD42464B4697
:102D500028460821FFF760FE3846444900F072FD1E
:102D60003046434900F06EFD7A1C03D03846414698
:102D700001F09CF8731C03D03046002101F096F856
:102D80003C4B9C4250D025D93B4B9C4264D003F530
:102D900080439C424BD103236B603949C3EBC3038F
:102DA0004FF0FF34284601EBC305224623466C60F2
:102DB000EC610021BDE8F047FFF7FABEA3F58043C0
:102DC0009842B5D12D4BD3F8C42042F00802C3F885
:102DD000C420ADE7A3F580439C4228D1284E4FF094
:102DE000FF34002169602246234628467460F4615E
:102DF000FFF7DEFE234B012429461C6022480822EF
:102E0000BDE8F04703F08EBF1C4BD3F8C42042F05E
:102E10008072C3F8C4208BE7184BD3F8C42042F06B
:102E20001002C3F8C42083E701236B60B5E76B6829
:102E30001349C3EBC3034FF0FF3601EBC307324620
:102E40003346284600217E60FE61FFF7B1FE0F4B3E
:102E50009C42CFD0BDE8F08702236B609DE70C4811
:102E60000C495C2200F03AFC2C6061E798E200001B
:102E70005CE00000000001400080094000C00F40FD
:102E80003819001030190010D01B001000C000408D
:102E900088E20000E4E0000038B5074B0546036017
:102EA00000242B195B68043418460BB101F03DFB7C
:102EB000402CF6D1284638BD30E3000010B504465A
:102EC000FFF7EAFF204601F030FB204610BD00BFAF
:102ED0002DE9F041234C90B00460169C01920394BC
:102EE000199C1E9A06941A9C189D07941B9C179E69
:102EF00008941C9C804600910F4602932098219BC9
:102F0000229909940B921D9C1F9A05950025049601
:102F10000A940C920D900E930F912E4614E01820F7
:102F200001F00AFB3946066046608660C6600661AD
:102F30004661044600F038FC08EB05030435402DDB
:102F40005C600AD05DF805707B1CE8D108EB0503D6
:102F500004350024402D5C60F4D1404610B0BDE83B
:102F6000F08100BF30E300002DE9F0418846061FE4
:102F700000250436746854B148FA05F7236807F051
:102F80000107013308D077B9236962681A600135F7
:102F9000102DEED1BDE8F08105480649242200F04D
:102FA0009DFB002FF0D0E36862681A60EFE700BF76
:102FB00078DE000090DE000010B50446FFF7D4FF75
:102FC000204610BD38B50023036043600A780446EC
:102FD0002F2A01D0204638BD4A78002AFAD0481C52
:102FE00020604A782F2A14D0B2B18D1C194600E017
:102FF00052B125602A782B462F2A01F1010105F1F3
:103000000105F5D10133236001F0E4F96060204649
:1030100038BD19460346F5E71146F5E700687047E5
:1030200010B50446406828B101F0F2F9012801D139
:10303000606810BD002010BD406808B528B101F0DF
:10304000E7F9D0F1010038BF002008BD10B50446F3
:10305000406830B101F0DCF918B9606808B1043893
:1030600010BD002010BD00BF4068003018BF012017
:10307000704700BF4FF0FF30704700BF704700BF80
:10308000014B0360704700BF40E300004FF0FF308A
:10309000704700BF4FF0FF30704700BF00207047FF
:1030A0004FF0FF30704700BF10B5034B044603607C
:1030B00001F03BFA204610BD40E3000010B5034B81
:1030C0000446036001F03CF9204610BD68E30000AF
:1030D00010B5054B0446036001F032F9204601F0BB
:1030E00024FA204610BD00BF68E3000010B501229D
:1030F000044601F05BF9024B2046236010BD00BF7F
:1031000068E3000038B5054D002380E82800044638
:1031100000F012FD024B20461C6038BDA086010065
:10312000181A001010B54160044600F06DFD014B07
:103130001C6010BD181A001038B5054D04462B68E8
:10314000834203D0416800F05FFD2C6038BD00BFB2
:10315000181A00102DE9F04182B09DF820501C464D
:103160000F461646804685F00105FFF7E5FF0095FE
:10317000404639463246234600F0FEFD201A18BF6D
:10318000012002B0BDE8F0812DE9F04182B09DF848
:1031900020501C460F461646804685F00105FFF775
:1031A000CBFF0095404639463246234600F038FDB5
:1031B000201A18BF012002B0BDE8F08108B510B197
:1031C00003689B699847002008BD00BF0023C0F832
:1031D00028317047D0F82801704700BFC0F8281187
:1031E000704700BF014B0360704700BF40E3000021
:1031F00010B5034B0446036001F097F9204610BD5B
:1032000040E3000038B50446406800F0A1FB0546E5
:103210001CB1236820461B6A9847284638BD00BF6A
:1032200038B5044600234068154600F09FFBA368AC
:10323000281A0344A36038BD38B50446002340680B
:10324000154600F0A7FBA368281A0344A36038BD05
:10325000406800F0ADBB00BF406800F0D3BB00BFCA
:10326000012A38B505460C4608D0022A09D06868FC
:10327000214600F0ABFBAC60204638BD83681C449F
:10328000F5E7406800F0BEFB0444F0E7406800F05A
:10329000ABBB00BF10B54FF49E7001F04DF9144B5D
:1032A0000446002140F8043B4FF4807203F043FDD4
:1032B0000023C4F80431C4F80831C4F80C31C4F850
:1032C0001031C4F81431C4F81831C4F81C31C4F8F2
:1032D0002031C4F82431C4F82831C4F82C31C4F8A2
:1032E0003031C4F83431C4F83831204610BD00BF45
:1032F00090E30000084600F093BB00BF10B5034BFD
:1033000004460360FEF7EAFD204610BDE0E300003E
:1033100010B5054B04460360FEF7E0FD204601F0C2
:1033200004F9204610BD00BFE0E30000F0B5104BEB
:1033300085B005461846009305F0B2F805F582748D
:1033400038230190029403934FF480766F46304601
:103350003946ABBE064646B90435214628462022EA
:1033600003F0E0FC284605B0F0BD002005B0F0BD3C
:1033700008E40000810703D502070ED50A20704734
:10338000C30705D510F0080F0CBF042008207047B4
:10339000003018BF01204042704710F4806F0CBF0E
:1033A00002200620704700BF38B50B780D464BB1A0
:1033B0002F2B1CD00C4601E02F2B18D014F8013F06
:1033C000002BF9D11046FFF7D5FF421C01460ED065
:1033D000284600F0ADFA431C044608D00C2001F04A
:1033E000ABF8044A002380E81400836038BD002055
:1033F00038BD00BFE0E30000014B0360704700BF31
:1034000018E4000010B5034B0446036001F08DF88A
:10341000204610BD18E40000F0B5DFF848C00446AF
:103420000F4883B04FF0080E251D00264FF0FF37E0
:10343000C4F800C0C4F808E0206166602846E66071
:10344000009700F077FE28463346A168E26800F056
:10345000D1FD2846216900F005FE204603B0F0BDED
:1034600040420F0018E4000070B5094D04462B6877
:1034700083420BD0061D3046A168E268002300F0AD
:10348000B9FD3046216900F0EDFD2C6070BD00BF34
:103490001C1A001010B4044C002323608160C26029
:1034A0005DF8044BFFF7E0BF1C1A0010024B00222E
:1034B00001611A60FFF7D8BF1C1A001038B50C461E
:1034C0000546FFF7D1FF281D2146BDE8384000F032
:1034D000D3BE00BF00F06AB8A0F14800FFF7FABF02
:1034E00000F068B8A0F14800FFF7FABF38B504460D
:1034F0001D4600F01BF8294604F1480000F0C0F812
:10350000054B204603F1080103F1200254332160EA
:10351000A264E36438BD00BF28E40000C1EBC10130
:1035200000EB81000C3000F0C3BF00BFF8B5104BBA
:103530000025044680E828000E46856029460C30A8
:10354000174600F0ABFF294604F1280000F0A6FF63
:10355000251D4FF4165331463A4663642846FFF75B
:10356000BDFB284622460349FFF792FA2046F8BDE4
:10357000B0DD00001D35000038B5144605460A468A
:1035800069B1C4EBC40005EB80000C3000F08CFF87
:10359000281D21460122BDE83840FFF789BA21469F
:1035A0000430BDE83840FFF783BA00BF0430FFF7AE
:1035B0008FBA00BF10B504300C46FFF7DFFA204683
:1035C00010BD00BF00207047F8B58E18B1420F46FD
:1035D00005460FD00C4601E0A64209D02B682846CC
:1035E0005B6A14F8011B98470130F5D1E01BF8BD68
:1035F000F01BF8BD0020F8BDF8B58E18B1420F469B
:1036000005460FD00C4603E004F8010BA64207D094
:103610002B6828469B6A9847431CF5D1E01BF8BDF0
:10362000F01BF8BD0020F8BD002070470020704757
:10363000002070470020704710B5074B044603F187
:1036400008023C3380E80C00406902F0CDFF2046C0
:1036500000F0E0FE204610BD88E40000A0F1040068
:10366000FFF7EABF10B50446FFF7E6FF204600F07B
:103670005CFF204610BD00BFA0F10400FFF7F2BFC1
:1036800030B585B0044600F0F5FE0C4B002503F183
:1036900008023C3384E80C006561224601A8084911
:1036A00004F0CAF901A8074903F0B0F9294660619E
:1036B00004F0EEF8204605B030BD00BF88E40000FD
:1036C00068DE0000D0E4000010B50446406903F055
:1036D00041F86069BDE8104003F07AB810B5084BB6
:1036E0000446186882B00B46C0680649009222461C
:1036F00003F096F902B0BDE81040FEF7B7BD00BF79
:10370000DC010010D4E400000FB400B5064A83B019
:1037100004AB126853F8041BD0681A46019305F0F5
:10372000CBFB012000F002F8DC01001038B50A4C98
:1037300005462368986803F00DF82368D86803F0FD
:1037400009F800F07DF820B905B9FEE7FEF78EFD17
:10375000FBE700F075F9F7E7DC01001038B50D461E
:10376000044600F0ABF9013509D02046002100F0F5
:10377000C1F920460321BDE8384000F0B7B938BD93
:1037800070B50D461646044600F098F9013509D08B
:103790002046002100F0AEF920463146BDE87040D9
:1037A00000F0A4B970BD00BF38B50D46044600F066
:1037B00085F901350FD0236801330DD02369626884
:1037C00020461A60012100F095F920460221BDE84B
:1037D000384000F08BB938BD024803492422FFF776
:1037E0007DFFEBE778DE000090DE000070B50D464F
:1037F0001646044600F062F9013514D023680133FF
:1038000012D066B9236962681A602046012100F06F
:1038100071F920460221BDE8704000F067B9E36805
:1038200062681A60F1E770BD034804492422FFF77B
:1038300055FF002EE6D0F2E778DE000090DE0000B3
:1038400000F00AB9431C10B5044618D00B68581C88
:1038500004D10FE051F80C3F5A1C0BD09C42F9D117
:103860002046896800F0FAFA20460221BDE810409F
:1038700000F01CBB0248BDE81040FFF745BF10BD7B
:1038800008E50000884208B50AD0431C07D0013182
:1038900006D00448FFF738FF4FF0FF3008BD084658
:1038A00008BD00BF1CE500000B685A1C04D107E0EE
:1038B00051F80C3F5A1C03D08342F9D14868704735
:1038C0001846704708B5431C0CD00B685A1C04D12D
:1038D00009E051F80C3F5A1C05D09842F9D14868CC
:1038E000411C00D008BD0348FFF70EFF4FF0FF302A
:1038F000F8E700BF30E5000038B5044600F026FBCD
:10390000054620B100F02AFB04B1206038BD00F06C
:1039100009FB284600F042FBF4E700BF10B504465F
:1039200000F000FB2046BDE8104000F037BB00BFB0
:1039300030B585B00190029104F0B2FD01240390EE
:1039400001AD20462946ABBE0446204605B030BD39
:1039500030B583B002AC44F8040D02252846214658
:10396000ABBE0446204603B030BD00BF30B585B0C5
:103970005AB1019002910392052401AD20462946D7
:10398000ABBE0446204605B030BD1446204605B007
:1039900030BD00BF30B585B001900291039206247E
:1039A00001AD20462946ABBE0446204605B030BDD9
:1039B00030B583B002AC44F8040D092528462146F1
:1039C000ABBE0446204603B030BD00BF30B583B067
:1039D0008DE803000A246D4620462946ABBE044606
:1039E000204603B030BD00BF30B583B002AC44F810
:1039F000040D0B2528462146ABBE0446204603B0E5
:103A000030BD00BF30B583B002AC44F8040D0C25C6
:103A100028462146ABBE0446204603B030BD00BF59
:103A200030B583B0009004F03BFD0E2401906D464C
:103A300020462946ABBE0446204603B030BD00BF39
:103A400030B585B018246D4620462946ABBE0446E5
:103A5000204605B030BD00BF024B186800F00100E1
:103A6000704700BFF0ED00E038B5054600F042FCBD
:103A7000044600F03FFC001BA842FAD338BD00BF4B
:103A80004FF47A7303FB00F0FFF7EEBF431C10B551
:103A9000044608D02046002100F0E0F904F01F049D
:103AA0000120A04010BD034803491522FFF716FE70
:103AB000F0E700BF50E5000064E5000038B50446BB
:103AC0004B1C0D4621600FD00846FFF7DFFF25F0A5
:103AD0001F0505F1180105F11C0205F114036060D2
:103AE000A560E1602261636138BD00BF006800F03D
:103AF000DDB900BF38B50368044601330D4610D068
:103B000045B1012D05D1A368626819680A431A609E
:103B100038BD38BDA36861681A6822EA01021A60DC
:103B200038BD034803492C22FFF7D8FDE8E700BF62
:103B300078DE000064E50000F8B506460D4608464C
:103B400029491446FFF7BEFE284907462046FFF7DD
:103B5000B9FE01463846FFF795FE421C0346306029
:103B60003AD0234A93422FD002F58822934223D0A1
:103B7000A2F50422934216D01E4A1F4912683C2720
:103B8000120AA1FB0202402692095A6128461A61D4
:103B900015499F611E60FFF755FE20461349BDE899
:103BA000F840FFF74FBE02F56022D2F8C41041F092
:103BB0008001C2F8C410DFE7104AD2F8C41041F007
:103BC0008061C2F8C410D7E70C4AD2F8C41041F49F
:103BD0000021C2F8C410CFE709480A496322FFF761
:103BE0007DFD3368BDE700BFCCE5000084E6000042
:103BF00000C0054058010010632D3E0500C00F4075
:103C000008E600001CE60000044B49001A6803683F
:103C10009208B2FBF1F15961196170475801001027
:103C20002DE9F001046824253C26A661A446256000
:103C3000504D01E0013D02D026683607FAD565688F
:103C40002026102DA66112D0082D10D01023082296
:103C50002360484BA26101E0013B02D02268D206FA
:103C6000FAD46FF001073846BDE8F001704741F023
:103C700001010825A1603F49A56101E0013902D099
:103C800025682F07FAD56168402910D01023082233
:103C90002360384BA26101E0013B02D02268D606C6
:103CA000FAD44FF0FF373846BDE8F00170475F1E89
:103CB000002F4FF000061BDD4FF004084FF0080CFA
:103CC000C4F800802B49C4F818C001E0013902D0C3
:103CD00025682D07FAD5A5686168EDB250292AD16B
:103CE00095550136BE4201D00468E9E7D0F800C01E
:103CF00004210824CCF818101E49CCF8184001E023
:103D0000013903D0DCF800402407F9D5DCF808407D
:103D1000DCF8041058291BD010230822CCF80030FE
:103D2000144BCCF8182001E0013B9CD0DCF80020BB
:103D3000D006F9D497E71023082223600D4BA26127
:103D400001E0013B02D02268D506FAD437468AE763
:103D50009455059A5AB10068102208210260054A5C
:103D6000816101E0013A02D00168C906FAD41F4618
:103D700079E700BFA186010070B404683C252420C7
:103D8000A561354D206001E0013D02D0266836076F
:103D9000FAD565682020102DA06110D0082D0ED016
:103DA0001023082223602C4BA26101E0013B02D0CA
:103DB0002268D506FAD46FF0010070BC704701F09C
:103DC000FE010820A1602449A06101E0013902D070
:103DD00025682807FAD5616818290ED01023082213
:103DE00023601D4BA26101E0013B02D02268D60690
:103DF000FAD44FF0FF3070BC7047002B11DD00206B
:103E00000826155C1449A560A66101E0013902D0BD
:103E100025682D07FAD56168282911D1013098420B
:103E2000EFD1039A52B11022082122600A4AA161FF
:103E300001E0013A02D02168C906FAD41846BCE76D
:103E4000102308222360044BA26101E0013BB4D09F
:103E50002268D506FAD4B0E7A186010038B5431C24
:103E600004460D4617D004F16040A0F51C2000F078
:103E70000F035B0003229A409D4003099B0003F15E
:103E8000804303F53033196821EA02021A601A6888
:103E900015431D6038BD034803491522FFF71EFC7A
:103EA000E1E700BF50E50000C0E6000038B5431C64
:103EB00004460D462CD004F16040A0F51C2000F013
:103EC0001F04C5F3800202FA04F443099B0003F1C6
:103ED000804303F53033996E21EA04019966996EA7
:103EE0000C439C669AB900F00F035B0003229A40D2
:103EF00005FA03F30009800000F1804000F530303E
:103F0000016C21EA02020264026C1343036438BDAF
:103F1000024803492022FFF7E1FBCCE750E500000F
:103F2000C0E60000074A084BD2F8C400002140F464
:103F30000070C2F8C40019721A7A42F001021A72B3
:103F4000704700BF00C00F4000400240024B187A8B
:103F500000F00100704700BF0040024000B50E4B6A
:103F60008BB093F8202001A8019293F824200292AC
:103F700093F82820039293F82C20049293F8382089
:103F80009B8F013A9BB2A3F26C730592069302F0E9
:103F9000ADFF0BB05DF804FB0040024000B583B0FC
:103FA00002AB43F8040D184602F03CFE104B1A7A9F
:103FB00042F002021A72027883F82020027983F814
:103FC0002420027A83F82820027B83F82C200269BF
:103FD0000132D2B283F83820426902F26C7292B296
:103FE0009A871A7A02F0FD021A7203B05DF804FB98
:103FF000004002402DE9F0410468074660680E4623
:10400000043920F002000C2915469846606001D85A
:10401000032A05D9114812496422FFF75FFB3C6867
:10402000206805F00103013E46EAC316C5F34005CA
:10403000000C46EA85150004284320606368B8F147
:10404000000F23F00D030CBF002204221343636012
:10405000636843F002036360BDE8F0819CE7000001
:10406000D8E70000F8B503682E4A5C68934224F054
:10407000020407465C6042D002F5B022934230D081
:10408000294B08461E6809F017FB0224054603E089
:104090000234B4F5807F40D0B6FBF4F009F00CFB9D
:1040A000294609F011FC4FF07C5109F051FA08F053
:1040B000C3FE00F09DFA09F0ADF9FF28E8DC3B688B
:1040C00001381C611A6822F47F0222F47F421A60D0
:1040D0001A6842EA002018605A6842F002025A60E8
:1040E000F8BD124BD3F8AC2122F44062C3F8AC21E6
:1040F000D3F8AC2142F48062C3F8AC21C0E70B4B8B
:10410000D3F8A82122F44012C3F8A821D3F8A8219B
:1041100042F48012C3F8A821B2E70548BDE8F84090
:10412000FFF7F2BA000003405801001000C00F4032
:1041300040E800002DE9F04F044683B00846894668
:10414000444990461F460C9EFFF7BCFB424903467C
:1041500040460193FFF7B6FB404905463846FFF756
:10416000B1FB3F4983463046FFF7ACFB019B294634
:1041700082461846FFF786FB514605465846FFF72C
:1041800081FB01462846FFF77DFB421C20605AD088
:10419000344B98424FD003F5B023984223D0731C80
:1041A0002BD02046002201230821FFF723FF2046C1
:1041B0002D49FFF757FF236848465A68254942F0C2
:1041C00002025A60FFF73EFB40462349FFF73AFBE5
:1041D00038462249FFF736FB2149304603B0BDE897
:1041E000F04FFFF72FBB03F5E823D3F8C42042F4C8
:1041F0000012C3F8C420731CD3D1002213462046FA
:104200000821FFF7F7FE20461749FFF72BFF236829
:1042100048465A680F4942F002025A60FFF712FB03
:1042200040460D49FFF70EFB0C49384603B0BDE888
:10423000F04FFFF707BB0D4BD3F8C42042F4806268
:10424000C3F8C420ABE70A480A494422FFF746FAFC
:1042500020689DE77CE8000024E7000060E700009C
:10426000B8E800000000034040420F0000C00F40CB
:1042700068E80000D8E700000368DA689007FCD51A
:104280009960DA685207FCD598687047134A38B5C8
:1042900013680BBB12490124D1F8C4501460114AB1
:1042A000114845F40005C1F8C4501367036801F1D3
:1042B000437101F5F45103319B08A1FB03039B0CEF
:1042C000013B022151600420D36008495460FEF78D
:1042D00053F8074B10221A6038BD00BF201A001097
:1042E00000C00F400040094058010010C9440000C0
:1042F00000E100E008B5044B1B680BB9FFF7C6FFEF
:10430000024B986808BD00BF201A00100040094009
:10431000034B98615A6942F001025A61704700BF2D
:1043200000400940024B5A6922F001025A6170476D
:1043300000400940014B01221A60704700400940CB
:10434000094A8368026053B1084B1A68824201D15E
:1043500006E01A4653688342FBD1436853607047B6
:1043600042681A60704700BF00E90000241A00107C
:104370000C4A836810B50446026053B10A4B1A68B0
:10438000904201D10AE01A4653689C42FBD163680F
:104390005360204600F0C9F8204610BD42681A60FC
:1043A000F7E700BF00E90000241A0010074B10B423
:1043B00000240273816080E8180019B1044B1A6868
:1043C000186042605DF8044B704700BF00E90000D0
:1043D000241A00100D4B70B51C6806460D4614B922
:1043E00012E0646884B1A36831462A461846002B5F
:1043F000F7D004F05DF80028F3D1A06804F050F87D
:10440000A842EED1204670BD002070BD241A0010D5
:10441000007B704710B5074B044603F108023433A4
:10442000226040F8043FFFF78BFF2046FDF756FD62
:10443000204610BD08E90000A0F10400FFF7EABF24
:10444000094B10B503F1080204463433226040F8EA
:10445000043FFFF775FF2046FDF740FD204600F0C2
:1044600064F8204610BD00BF08E90000A0F1040078
:10447000FFF7E6BF074B10B50022044640F8043BA7
:10448000FFF794FF044B204603F10802343384E81D
:104490000C0010BD40DE000008E90000002280E8AA
:1044A00006008261704700BF002380E80A00704761
:1044B00008B5036801460BB1984708BD406810B1C4
:1044C0008B690831984708BDF8B5FFF733FF124EE6
:1044D000124F3368ABB1D3E90045FFF70BFF221A47
:1044E00065F1000310461946012871F100030CDA4A
:1044F00031683A68CB683360002AEBD0886890470F
:10450000E7E7BDE8F840FFF70DBF3368D3E90001E6
:10451000BDE8F840FFF7FCBE281A00102C1A001066
:1045200003460846194601F0F7BF08B102F0E4BBA4
:104530007047FFF7FABF000010B5002814BF04460B
:104540000124204602F0D0FB30B9044B1B680BB9A4
:1045500001F0D0FF9847F4E710BD00BF301A0010FB
:10456000FFF7EABF70B5204E21F00044B44286B098
:1045700002460B4619DD1D4DAC4203DD08F0FCFA86
:1045800006B070BD02AA00F05BFC00F00300012839
:104590001BD002280FD000B301230093DDE90201F4
:1045A000DDE9042301F030FCEAE70022002300F0FB
:1045B00027FF06B070BDDDE90201DDE9042300F04C
:1045C0001FFF01F1004106B070BD0090DDE904233A
:1045D000DDE9020101F018FCF3E7DDE90201DDE9A4
:1045E000042300F00DFFCBE7FB21E93FFFFFEF7F46
:1045F0002DE9F84FC1F30A57A7F2FF36132E0246F2
:104600000B4604460D4689468A4680461CDC002E31
:1046100040DB3D4F374107EA010C5CEA000C18D043
:1046200037A3D3E9002308F0A9FA0022002308F0F9
:10463000E7FE28B1002D42DB2AEA07094FF0000807
:1046400040464946BDE8F88F332E06DDB6F5806F4B
:1046500031D010461946BDE8F88FA7F2134C4FF041
:10466000FF3B2BFA0CFB1BEA000FF2D024A3D3E98B
:10467000002308F083FA0022002308F0C1FE00287E
:10468000DED0002D22DB28EA0B08D1464046494601
:10469000BDE8F88F1AA3D3E9002308F06FFA0022CF
:1046A000002308F0ADFE0028CAD0002D1CDB4FF01F
:1046B0000008C146C4E708F061FABDE8F88F4FF47E
:1046C000801A4AFA06F606EB050AB5E7142E14D04E
:1046D000C7F586670123033703FA07F717EB0408CA
:1046E00028BF05EB030ACEE725F00042074B224323
:1046F00018BF99464FF00008A2E705F1010AC2E78A
:104700009C7500883CE4377EFFFF0F000000F0BF7F
:1047100070B5224E21F00044B44286B002460B46EA
:104720001ADD1F4DAC4203DD08F026FA06B070BD5D
:1047300002AA00F085FB00F0030001281DD002282A
:1047400012D008B3DDE90201DDE9042300F058FED0
:1047500001F1004106B070BD002300930022002348
:1047600001F052FB06B070BD01230093DDE90201A8
:10477000DDE9042301F048FBEAE7DDE90201DDE9B8
:10478000042300F03DFED1E701230093DDE902019F
:10479000DDE9042301F038FBC8E700BFFB21E93F56
:1047A000FFFFEF7F000000002DE9F0438BB00446CF
:1047B0000D4600F03DF9DFF8E480064698F9003038
:1047C0000F46013338D02046294601F0D9FB002896
:1047D00032D0204629462AA3D3E9002308F010FE50
:1047E000814600282DD12046294627A3D3E900235E
:1047F00008F0E8FD00B398F90010254E04200022CF
:1048000000230229CDF82090CDE90445CDE90245E9
:104810008DE84100CDE906232CD0684601F0DEFB8F
:1048200040B3089B1BB101F087FE089B0360DDE9E4
:1048300006010BB0BDE8F083304639460BB0BDE849
:10484000F083134898F8001003220023CDE90445B3
:10485000CDE9024501900092089329B90D4B4FF024
:104860006042CDE90623D8E70B4B00220229CDE9AF
:104870000623D2D101F060FE22230360D1E700BFFE
:10488000EF39FAFE422E864051302DD5104987C0AF
:1048900048E90000FFFFEF470000F07F78010010BB
:1048A0002DE9F0418AB004460D4600F03DFADFF8EC
:1048B000D080064698F900300F4601330BD02046D1
:1048C000294601F063FB30B120462946002200232F
:1048D00008F082FD20B9304639460AB0BDE8F081C3
:1048E000234A98F800600023CDE90245CDE904454C
:1048F0000192089346BB1F4B4FF06042CDE906235F
:10490000204629460022002308F052FD70B1022300
:104910009E42009322D0684601F060FBF0B1089BF4
:104920000BBBDDE906010AB0BDE8F0810123022ED0
:1049300000930ED0684601F051FB50B10E4801F0D3
:104940004FFBCDE90601EAE70C4B0022CDE9062337
:10495000D6E701F0F1FD21230360EFE701F0ECFD64
:1049600022230360DBE701F0E7FD089B0360D8E743
:104970004CE90000FFFFEFC704E500000000F0FF76
:10498000780100102DE9F0478AB004460D4600F08A
:1049900077FCDFF898A006469AF900300F460133FD
:1049A0000FD02046294601F0F1FA50B14FF000082F
:1049B0004FF0000942464B462046294608F002FDCA
:1049C00020B9304639460AB0BDE8F08716499AF852
:1049D000006001220023CDE90445CDE902450191A3
:1049E0000092089366B9CDE90689684601F0F6FAA7
:1049F00080B1089B9BB9DDE906010AB0BDE8F087EC
:104A00004046494642464B4608F094FB022ECDE90B
:104A10000601EAD101F090FD21230360E9E701F0EE
:104A20008BFD089B0360E6E754E900007801001065
:104A30002DE9F04FDFF8E4C221F00047674583B06D
:104A400004460D4602460B464FEAD1760DD9DFF8F3
:104A5000D0C2674526D9C1F3130707431DD1002EE5
:104A600040F0158103B0BDE8F08FA54B9F4200F2E6
:104A7000CF80A44B9F4200F2E1808BA3D3E90023B7
:104A800008F07CF80022A04B08F0BAFC002800F0E7
:104A900008819D4B20462946002208F06FF803B09C
:104AA000BDE8F08F82A3D3E9002308F0A9FC002819
:104AB00040F0C780204629467FA3D3E9002308F0B1
:104AC00081FC002840F0E3807DA3D3E90023204649
:104AD000294608F005FA8D4B03EBC606D6E90023FC
:104AE00008F04CF808F096FC804608F093F976A39D
:104AF000D3E9002306460F4608F0F2F902460B46BA
:104B00002046294608F038F871A3D3E90023CDE9FF
:104B100000013046394608F0E3F982468B46DDE96C
:104B2000000152465B4608F027F804460D4622462F
:104B30002B462046294608F0D3F967A3D3E9002382
:104B400006460F4608F0CCF965A3D3E9002308F028
:104B500013F832463B4608F0C3F963A3D3E90023B8
:104B600008F00CF832463B4608F0BAF960A3D3E9E6
:104B7000002308F001F832463B4608F0B1F95EA385
:104B8000D3E9002307F0FAFF32463B4608F0A8F9C4
:104B900002460B462046294607F0EEFF06460F4622
:104BA0002046294632463B46B8F1000F51D008F066
:104BB00097F9324604460D463B4600204FF08041AF
:104BC00007F0DAFF02460B462046294608F0B2FA03
:104BD00002460B465046594607F0CEFFDDE900235A
:104BE00007F0CAFF0B4602464749002007F0C4FF02
:104BF0006FF47F7398454FDA08F57A7801EB085126
:104C000000224FF0B87308F06BF903B0BDE8F08FE5
:104C10003F4B9F423FF658AF3E4BF4002344D3E94D
:104C2000002307F0A9FF3C4BC6F101081C44CDE965
:104C30000001D4E900ABC6EB080870E74FF00008AC
:104C400075E719A1D1E9000102460B4608F048F9C1
:104C500008E708F045F90022804689463046394683
:104C60004FF0804307F088FF02460B464046494616
:104C700008F060FA22462B4607F07EFF02460B46FC
:104C80000020214907F078FF03B0BDE8F08F002035
:104C9000002103B0BDE8F08F01EB085103B0BDE87F
:104CA000F08F804643E700BF9C7500883CE4377E68
:104CB000EF39FAFE422E864051302DD5104987C07B
:104CC000FE822B654715F73F0000E0FE422EE63FCF
:104CD000763C7935EF39EA3DD0A4BE726937663E3D
:104CE000F16BD2C541BDBB3E2CDE25AF6A56113FEC
:104CF00093BDBE166CC1663F3E5555555555C53FD3
:104D0000422ED63FFFFF2F3E0000F03F60E900003B
:104D1000B1A2F03F80E9000070E90000412E86401A
:104D2000FFFFEF7FAFF30080B1F5801F2DE9F8435F
:104D300006460F460B4619DA21F00043034358D0CC
:104D400000295EDB00223A4B08F0CAF8394A0B46CC
:104D500093420F4606466FF035010BDD304639466B
:104D600032463B4607F00AFFBDE8F883314A00218E
:104D70009342F3DC1A15A2F2FF3250184FEAD078B2
:104D80004044C3F3130908F045F8C8F57F720332B5
:104D900049EA025704460D463046394601F0A8F963
:104DA0001DA3D3E90023804689462046294608F002
:104DB00097F81BA3D3E9002306460F462046294651
:104DC00008F08EF818A3D3E9002304460D464046A8
:104DD000494608F085F802460B462046294607F06A
:104DE000CDFE02460B463046394607F0C7FEBDE809
:104DF000F8830022002300200F4908F09BF9BDE84A
:104E0000F88302460B4607F0B7FE0022002308F0A5
:104E100091F9BDE8F88300BF00609F501344D33F71
:104E2000362BF111F3FE593D0EE526157BCBDB3F0A
:104E300000005043FFFFEF7F000050C3AFF300803E
:104E40002DE9F04F964B21F000469E4291B004466A
:104E50000D468B46904640F38180924B9E4226DC65
:104E600085A3D3E90023002940F3A08107F084FE45
:104E70008D4B04469E420D4600F0858080A3D3E909
:104E8000002307F079FE02460B46C8E900232046BE
:104E9000294607F071FE7AA3D3E9002307F06CFEE0
:104EA0000127C8E90201384611B0BDE8F08F7F4BF9
:104EB0009E4240F385807E4B9E425ADC4FEA265943
:104EC000A9F21649A6EB09552946044608F0A2FAAC
:104ED00007F0A0FF06460F4602460B46204629462D
:104EE000CDE90A6707F048FE0022724B07F0F8FF91
:104EF0000F46064608F08EFA07F08CFF02460B4676
:104F000004460D4630463946CDE90C4507F034FEDF
:104F10000022684B07F0E4FF00220023CDE90E01D8
:104F200008F046FA002800F06D810023204629464B
:104F3000002208F03DFA002814BF012302235E4836
:104F40000221019000914A460AA8414600F07CFBEC
:104F5000BBF1000FC0F24881074606E000220023A3
:104F6000C8E90045C8E902230027384611B0BDE86A
:104F7000F08F02460B4607F0FFFD0027C8E902014B
:104F8000C8E90001F1E740A3D3E9002307F0F4FDED
:104F90003FA3D3E9002304460D4607F0EDFD02468A
:104FA0000B46C8E900232046294607F0E5FD38A353
:104FB000D3E9002307F0E0FD0127C8E90201D4E7A7
:104FC00000F0DAFF34A3D3E9002304460D4607F0CE
:104FD00087FF0022394B07F0D1FD08F01BFA074686
:104FE00007F018FF24A3D3E90023CDE9060107F059
:104FF00077FF02460B462046294607F0BDFD20A359
:10500000D3E90023CDE90201DDE9060107F068FFDD
:105010001F2FCDE90401DDE9020153DC284B7A1E84
:1050200053F82230B3424DD0DDE9042307F0A4FD4C
:1050300004460D46C8E90045DDE9020122462B463B
:1050400007F09AFDDDE9042307F096FDBBF1000FA0
:10505000C8E9020189DA264601F1004305F100445E
:105060007F42C8F80060C8F80440C8F80800C8F8D3
:105070000C307AE7AFF3008000004054FB21F93F89
:105080003163621A61B4D03D0000601A61B4D03D52
:105090007370032E8A19A33B83C8C96D305FE43F48
:1050A000FB21E93F7BD90240FB21F93FFB2139413C
:1050B000FFFFEF7F0000704110EA00000000E03FBA
:1050C00090E90000DDE9042307F056FD3615C1F331
:1050D0000A53F31A04460D46102BC8E90045ABDD10
:1050E0005BA3D3E90023DDE9060107F0F9FE0446DE
:1050F0000D4622462B46DDE9020107F03DFDCDE9D4
:105100000801DDE90823DDE9020107F035FD22464B
:105110002B4607F031FD50A3D3E9002304460D468A
:10512000DDE9060107F0DCFE22462B4607F024FDF0
:10513000CDE90401DDE90423DDE9080107F01CFDE8
:10514000C1F30A53F61A04460D46312EC8E900454C
:1051500078DD43A3D3E90023DDE9060107F0C0FEB3
:1051600004460D4622462B46DDE9080107F004FD02
:10517000CDE90201DDE90223DDE9080107F0FCFCCD
:1051800022462B4607F0F8FC37A3D3E90023044658
:105190000D46DDE9060107F0A3FE22462B4607F087
:1051A000EBFCCDE90401DDE902013DE707F0E6FC97
:1051B000314B04469E420D4626D02DA3D3E9002351
:1051C00007F0DCFC02460B46C8E9002320462946CE
:1051D00007F0D2FC26A3D3E9002307F0CFFC4FF061
:1051E000FF37C8E90201C0E6D8F80420D8F80C302F
:1051F00002F1004203F100434742C8F80420C8F816
:105200000C30B2E603239AE611A3D3E9002307F09A
:10521000B5FC11A3D3E9002304460D4607F0AEFC0C
:1052200002460B46C8E900232046294607F0A4FCA5
:1052300009A3D3E9002307F0A1FC4FF0FF37C8E929
:10524000020192E6DDE90823CDE90223F4E600BF7E
:105250000000601A61B4D03D7370032E8A19A33B1D
:105260000000002E8A19A33BC14920259A837B396F
:105270003163621A61B4D03DFB21F93FAFF3008086
:1052800021F0004C2DE9F8434FEA1C5CDFF86C81FB
:105290004FEA0C5CC44506460F460B46024600F03A
:1052A0008F8000296FDD0F1578D0A7F2FF37C3F389
:1052B0001303F90743F4801360D4D10F4FF0000CAF
:1052C00001EB43037F105200654616204FF4001196
:1052D0006C189C424FEAD2764FEA420202DC1B1B5A
:1052E00065188C44013806EB43034FEA5101EFD1B6
:1052F000804620264FF0004109E023D0D40F013E24
:105300004FEA510104EB43034FEA42021ED0AB4285
:1053100001EB0804F1DD04F00049B9F1004F04EBA2
:10532000010809D0A9465B1B944288BF03F1FF33F3
:10533000121B08444D46E1E7B8F1000FF2DB05F11E
:105340000109F0E79442E6D91D46D7E71A4304D095
:10535000431C41D000F00103184446084FEA6C0397
:105360001CF0010F03F17F5303F5001318BF46F043
:10537000004603EB07513046BDE8F883D10F01EB3F
:105380004303520099E721F00043034322D051BB6D
:105390000F46D30A153F5205002BFAD013F48011A3
:1053A0001DD15B00D80201F10101FAD5C1F1010064
:1053B000C1F1200422FA04F407448A40234374E72D
:1053C00002460B4607F08CFD32463B4607F0D6FB03
:1053D000BDE8F883BDE8F8830CF1010CBEE720249A
:1053E00001200021E6E702460B4607F0C5FB024616
:1053F0000B4607F09FFEBDE8F88300BF0000F07F7A
:105400002DE9F04F21F00049B9F1795F85B00646EA
:105410000F4692469B466BDA07F0FCFF002800F02F
:10542000EA8032463B463046394607F059FD74A3C0
:10543000D3E9002304460D4607F052FD72A3D3E9D9
:10544000002307F09BFB22462B4607F049FD70A383
:10545000D3E9002307F090FB22462B4607F040FDDE
:105460006DA3D3E9002307F089FB22462B4607F002
:1054700037FD6BA3D3E9002307F07EFB22462B46C2
:1054800007F02EFD68A3D3E9002307F077FB22463F
:105490002B4607F025FDCDE90001204629460022D4
:1054A000634B07F01DFDDDE9002380468946204659
:1054B000294607F015FD524604460D465B46304628
:1054C000394607F00DFD02460B462046294607F0F7
:1054D00053FB02460B464046494607F04DFB024649
:1054E0000B460020534907F047FB05B0BDE8F08F9D
:1054F00002460B4607F0F4FC41A3D3E9002304461F
:105500000D4607F0EDFC40A3D3E9002307F036FB7E
:1055100022462B4607F0E4FC3DA3D3E9002307F025
:105520002BFB22462B4607F0DBFC3BA3D3E90023F1
:1055300007F024FB22462B4607F0D2FC38A3D3E920
:10554000002307F019FB22462B4607F0C9FC36A3BF
:10555000D3E9002307F012FB2B46224607F0C0FCDC
:10556000354BCDE90001994597DD344B0022994533
:1055700039DCA9F50013002200202E4990469946F7
:1055800007F0FAFACDE90201204629460022284B0D
:1055900007F0A6FC42464B4607F0EEFADDE9002391
:1055A000804689462046294607F09AFC5246044622
:1055B0000D465B463046394607F092FC02460B46E4
:1055C0002046294607F0D8FA02460B46404649468F
:1055D00007F0D2FA02460B46DDE9020107F0CCFAE9
:1055E00005B0BDE8F08F164B4FF00008CDE902235F
:1055F000DFF85090C8E70F49002005B0BDE8F08FF4
:10560000D43888BEE9FAA8BDC4B1B4BD9EEE213E2F
:10561000AD529C804F7E923E9015CB19A001FA3E70
:105620007751C1166CC1563F4C5555555555A53F40
:105630000000E03F0000F03F3233D33F0000E93F7D
:105640000000E73F0000D23F2DE9F04F7B4DD41E14
:1056500085FB0465E417C4EBA505ADF51D7D25EAC2
:10566000E5750E959946764CEB43A69D09F1FF36FC
:1056700054F8254004960C9407900E9C049D0C98B9
:1056800003EB430302EBC303A61B2C180B910A93F5
:1056900017D4A798344401340DF1880800EB86052F
:1056A000002709E0E85907F0B5FB0136A642E8E912
:1056B000020107F1040704D0002EF3DA00200021D4
:1056C000F3E70C9C002C2DDB0C9D74AE06EBC50B98
:1056D00024A800EBC90A0DF5E478CDF80CB0049CC1
:1056E000002CC0F29581079D5746A5F1080B0024B8
:1056F0000025002677E90223FBE9020107F0F0FB11
:1057000002460B462046294607F038FA01364E4538
:1057100004460D46EED1E8E90245039C0AF1080A69
:10572000A045DCD10C9D10AC04EB850602940F96CD
:105730000395039E9CABF60033440696039E53E903
:105740002845002E2EDD069E0DF5E87AB244039E14
:105750000DF13C0B0BEB860B0DF13C080022394B95
:105760002046294607F0BCFB07F054FE07F052FB29
:105770000022354B06460F4607F0B2FB02460B46A9
:105780002046294607F0F8F907F044FE324648F86B
:10579000040F3B467AE9020107F0F0F9D8450446C8
:1057A0000D46DBD1204629460A9A00F021FC002252
:1057B0004FF07F5304460D4607F092FBFEF718FFAB
:1057C0000022224B07F08CFB02460B46204629465E
:1057D00007F0D2F904460D4607F01CFE824607F09A
:1057E00019FB02460B462046294607F0C5F90A9CDC
:1057F0000646002C0F4640F3F280039D10A8691E58
:1058000050F82130C4F1180043FA00F202FA00F017
:10581000C4F117051B1A43FA05F510AC44F8213002
:105820009244002D3EDD039C0AF1010A002C40F356
:10583000F98010AB03EB8401002411E0ABAAAA2A83
:1058400018EB00000000703E000070410000204096
:10585000C2F1807012B143F8040C01248B420DD0C8
:1058600053F8042B002CF3D0C2F1FF1202F57F4253
:105870008B4243F8042C4FF00104F1D10A98002820
:105880000DDD012800F0B380022808D1039910A88B
:105890004B1E50F82320C2F3150240F82320022D9E
:1058A00000F08480304639460022002307F080FD56
:1058B000002800F0B980039C0C9E04F1FF38464597
:1058C0000DDC10A800EB84030F98002253F8041D90
:1058D000834242EA0102F9D1002A40F044820C9C42
:1058E00010AD621E55F82230002B40F0548205EBBB
:1058F0008202012352F8041D01330029FAD0039ECD
:10590000039C1E44631CB3420D9649DC049D0E9E0D
:105910002B44214622460D9D3244494424AE03F1D6
:10592000FF3B2B1B06EBC1040994A79D069C06EBCD
:10593000CB0B74AE05EB8202DB0026440392089386
:1059400006964FF00008039D08F1080855F8040F6B
:10595000039507F05FFA049EEBE90201002E22DBBB
:10596000079C099FA4F1080A47440024002500264B
:1059700077E90223FAE9020107F0B2FA02460B4680
:105980002046294607F0FAF801364E4504460D46F2
:10599000EED1069EE6E90245089C0696A045D2D1C6
:1059A0000D9D0395C5E600240025F2E732463B46EF
:1059B0000020924907F0E0F806460F46002C3FF41D
:1059C00071AF0A9A00208D4900F012FB02460B4687
:1059D0003046394607F0D0F806460F4662E710D148
:1059E000039D10A86B1E50F82350ED1519E703997D
:1059F00010A84B1E50F82320C2F3160240F82320B3
:105A00004DE700227E4B07F0F1FC20B9054649E73F
:105A1000002400257FE6039C0225002C0AF1010AE0
:105A20003FF707AF002429E70A9C30466242394617
:105A30000695CDF81CA000F0DBFA0022714B04465D
:105A40000D4607F0D3FC002800F0BB8100226E4B0E
:105A50002046294607F044FA07F0DCFC064607F02A
:105A6000D9F90022674B07F03BFA02460B46204665
:105A7000294607F081F807F0CDFC039C0A9D10A988
:105A800004F10108183541F824000A9541F828600E
:105A90000A9A0020594900F0ABFAB8F1000F044609
:105AA0000D465ADB08F1010610A874A9039600EB15
:105AB000860701EBC60657F8040D07F0ABF922463E
:105AC0002B4607F00DFA002266E902014E4B2046F4
:105AD000294607F005FA029A044697420D46EAD194
